:020000040800F2
:10000000602D00204D020008C7180008BB1400082E
:10001000C51800080F0500089D3100080000000009
:100020000000000000000000000000007F2A00081F
:10003000A1060008000000002B030008052B0008A3
:10004000870200088702000887020008870200086C
:10005000870200088702000887020008870200085C
:10006000870200088702000887020008870200084C
:10007000870200088702000887020008870200083C
:10008000870200088702000887020008870200082C
:10009000870200088702000887020008870200081C
:1000A000870200088702000887020008870200080C
:1000B00087020008870200088702000887020008FC
:1000C00087020008870200088702000887020008EC
:1000D000870200088702000887020008293100080B
:1000E00087020008870200088702000887020008CC
:1000F00087020008870200088702000887020008BC
:1001000087020008870200088702000887020008AB
:10011000870200088702000887020008870200089B
:10012000870200088702000887020008870200088B
:10013000870200088702000887020008870200087B
:10014000870200088702000887020008870200086B
:10015000870200088702000887020008870200085B
:10016000870200088702000887020008870200084B
:1001700087020008870200088702000800000000CC
:10018000870200088702000887020008870200082B
:10019000870200088702000887020008870200081B
:1001A00087020008870200088702000800F002F8B2
:1001B00000F03CF80AA090E8000C82448344AAF1C5
:1001C0000107DA4501D100F031F8AFF2090EBAE8C3
:1001D0000F0013F0010F18BFFB1A43F0010318477B
:1001E0003835000058350000103A24BF78C878C16F
:1001F000FAD8520724BF30C830C144BF04680C602D
:10020000704700000023002400250026103A28BF74
:1002100078C1FBD8520728BF30C148BF0B60704778
:100220001FB503F0EBF91FBD10B510BD00F0BAF813
:100230001146FFF7F5FF03F05FF800F0D8F803B4BC
:10024000FFF7F2FF03BC02F0AAFF0000114880474D
:10025000DFF84400016841F470010160BFF34F8F83
:10026000DFF83800016821F040410160BFF36F8F73
:100270000B480047FEE7FEE7FEE7FEE7FEE7FEE786
:10028000FEE7FEE7FEE7FEE706480749074A084B98
:1002900070470000292B000888ED00E034EF00E0F3
:1002A000AD01000860270020602D0020602900209B
:1002B00060290020EFF3098141B1F1EE101A40F8F6
:1002C000041D20ED200A29490A6810607047B0EC2F
:1002D000200A02C8E1EE101A25490A68106070472A
:1002E000EFF3108072B6704780F310887047214892
:1002F0004FF6FF710170002080F309881E480168E5
:1003000081F308881D48012101701D484FF080517C
:10031000016062B6FEE71A484FF0805101607047F5
:1003200017484FF080510160704772B6EFF30980B3
:1003300028B1203880E8F00F0C490968086000B542
:10034000104880475DF804EB0F4810490A780270A6
:10035000064807490A680260106890E8F00F2030EC
:1003600080F309884EF0F40E62B670475400002006
:100370005C00002022ED00E0780000203B0000201F
:1003800004ED00E05123000838000020390000206F
:1003900070477047704770477047000000487047CB
:1003A000FC2600207546FFF7F9FFAE4605006946BA
:1003B000534620F00700854618B020B5FFF764FFCC
:1003C000BDE820404FF000064FF000074FF0000856
:1003D0004FF0000B21F00701AC46ACE8C009ACE8D7
:1003E000C009ACE8C009ACE8C0098D4670470446B6
:1003F000AFF300802046FFF722FF10B501F07EF832
:100400000421002000F05DF8322002F0FFFE0321FD
:10041000002000F056F8002000F036F8032801D044
:10042000012010BD002010BD7CB5054600246E469D
:1004300004F10A00C0B200F027F83055641CA4B2E1
:10044000062CF5D39DF80010080601D5002103E025
:100450009DF8010060F39F019DF80400BDF80220A3
:10046000430601D5002005E09DF8053003F03F0369
:1004700063F31F106970090AA970E870000A2871F7
:100480006A71100AA8717CBD10B5044601F0DEF84F
:100490003C2001F0ABF801F019F9204601F0A6F874
:1004A00001F014F901F0D2F83D2001F09FF801F0BD
:1004B0000DF9002001F066F8044601F0E7F8204647
:1004C00010BD70B50C46054601F0C0F83C2001F0A7
:1004D0008DF801F0FBF850B9284601F087F801F0DB
:1004E000F5F8204601F082F801F0F0F818B101F0BB
:1004F000CDF8012070BD01F0C9F8002070BD704733
:100500007047704770477047704770477047FEE705
:1005100070B515480024016821F040710160016840
:100520000160124D04E0641CE4B2012002F090FE70
:10053000D5F8300210B1642CF5D30DE0642C0BD249
:10054000002404E0641CE4B2012002F081FED5F82E
:10055000300218B1642C04D3012070BD642CF1D397
:10056000FAE7002070BD0000000402400080404215
:100570000E4800B5016887B041F0020101600068D3
:10058000694600F0020005904FF480500090012071
:100590000190029003200390054800F083F800F0DA
:1005A00061F8FFF7B5FF07B000BD0000303802402A
:1005B0000004024070B50024104D04E0641CE4B255
:1005C000012002F045FED5F8300208B1642CF5D3C5
:1005D000002404E0641CE4B2012002F039FED5F8E6
:1005E000300208B9642CF5D3282002F031FED5F88A
:1005F0003002002800D0012070BD00000080404281
:1006000070B5002004464006050EFFF7D3FF641CBA
:100610002843E4B2082CF6D370BD7CB5054600F043
:1006200021F8FFF775FF08B101207CBD00246E465C
:10063000FFF7E6FF3055641CE4B2052CF8D39DF8B3
:1006400000109DF801009DF803300A189DF8020083
:1006500003441A449DF804309A4201D1E97128728A
:1006600000207CBD0C4810B5016821F0407101608C
:10067000016841F080710160084C0020C4F8B002AC
:10068000142004F52C7402F0C1FD01202060BDE8A7
:1006900010401E2002F0DCBD0004024000804042F9
:1006A000704700002DE9F84FDFF8A091002209F112
:1006B000040A0AF1040B4FF00F080BF1040E012697
:1006C0000B6896403340B34271D14C68022C01D084
:1006D000122C11D1D40800EB84073D6A5407E40EB4
:1006E00008FA04FC25EA0C05D1F810C00CFA04FC49
:1006F0004CEA050CC7F820C007685400032591F8A0
:1007000004C0A5400CF0030CAF430CFA04FC4CEA07
:10071000070CC0F800C04F68012F05D0022F03D08E
:10072000112F01D0122F11D18768D1F80CC0AF431F
:100730000CFA04FC4CEA070CC0F808C04768B74341
:100740000E79C6F3001696403E434660C668AE4337
:100750008D68A5403543C5604C68E4006FD53C4CBE
:10076000256845F480452560246822F0030504F4DB
:1007700080440094374C2E19D6F808789407250F3A
:1007800008FA05F4A743344CA04201D100242EE01E
:10079000324CA04201D1012429E0314CA04201D1C8
:1007A000022424E02F4CA04202D103241FE046E0A3
:1007B0002D4CA04201D1042419E02C4CA04201D1BF
:1007C000052414E02A4CA04201D106240FE0294C54
:1007D000A04201D107240AE0274CA04201D10824FD
:1007E00005E0264CA04201D1092400E00A24AC40D7
:1007F0003C43C6F80848D9F800404D464E689C4333
:10080000F60300D51C432C60DAF8004055464E68CC
:100810009C43B60300D51C432C60DBF800405D46CA
:100820004E689C43F60200D51C432C60DEF8004065
:1008300075464E689C43B60200D51C432C60521C82
:10084000102AFFF43CAFBDE8F88F0000003C0140E7
:1008500044380240003001400000024000040240E1
:1008600000080240000C0240001002400014024048
:1008700000180240001C02400020024000240240F8
:100880000069084000D0012070470AB181617047BB
:100890000904FBE7014800687047000024000020BD
:1008A00002480168491C01607047000024000020D4
:1008B0000B4810B5016841F400710160016841F412
:1008C00080610160016841F480710160052000F0E1
:1008D00049F80F2000F006F800F015F8002010BDD0
:1008E000003C024010B5044600F096F94FF47A71CE
:1008F000B0FBF1F000F0AAFB00222146501E00F0F0
:1009000011F8002010BD08B50020009008BD00F0CF
:100910001F02012191404009800000F1E020C0F851
:1009200000117047F0B40E4B1B68C3F30223C3F1F0
:100930000704042C00D904241D1D072D01D2002317
:1009400000E0DB1E012606FA04F56D1E0D409D40F9
:100950009E40761E164045EA0601F0BC00F0B4BF8A
:100960000CED00E0064A00F0070110684FF6FF03A7
:10097000184040EA01200349084310607047000016
:100980000CED00E00000FA052DE9F8431D48016870
:1009900041F0805101600068012700F08050009014
:1009A000380490FAA0F0DFF86080B0FA80F048F8E0
:1009B0002070FFF76FFF04464FF47A75134E04E082
:1009C000FFF768FF001BA84213D87068C003F7D573
:1009D0004FF4003090FAA0F0B0FA80F048F82070A0
:1009E000FFF758FF044607E0FFF754FF001BA8423B
:1009F00002D90320BDE8F88370688003F4D5002095
:100A0000F8E700004038024000000E42007000404D
:100A10002DE9F05FDFF8F8A104460F46DAF8000090
:100A2000DFF8F08100F00F02C8B27A49814641F246
:100A3000883608F10808BA4261D202468AF80020D6
:100A4000DAF8000000F00F00B8427DD1207880076E
:100A500007D5D8F80020A36822F0F0021A43C8F89E
:100A600000202078C0072DD0606801281AD0022805
:100A70001BD0032819D009688907002964DAD8F83F
:100A80000010474621F003010143C8F80010FFF7AA
:100A900001FF0546606801280FD0022818D00328FE
:100AA0001CD027E009688903E7E709688901E4E7C2
:100AB000FFF7F0FE401BB04258D83868C0F3810001
:100AC0000128F5D188E0FFF7E5FE401BB0424DD884
:100AD0003868C0F381000228F5D17DE03868FFF75F
:100AE000D9FE401BB042F9D940E0FFF7D3FE401BCE
:100AF000B0423BD8386810F00C0FF6D16CE020788B
:100B0000800707D5D8F80020A36822F0F0021A4326
:100B1000C8F800202078C0074CD06068012828D091
:100B2000022829D0032827D009688907002949DA33
:100B3000D8F8002022F003020243C8F80020FFF793
:100B4000A9FE0546606800E03CE001281DD00228AF
:100B500029D0032838D0B3464646306810F00C0F31
:100B600028D0FFF797FE411B5945F6D90320BDE871
:100B7000F09F09688903D9E709688901D6E7FFF77B
:100B800089FE411B594502D9F0E7B3464646306815
:100B9000C0F381000128F2D10CE0FFF77BFE411B7E
:100BA000594502D9E2E7B34646463068C0F38100B2
:100BB0000228F2D18AF80090DAF8000000F00F0065
:100BC000B84209D00120D2E744462068FFF762FE10
:100BD000401BB042F9D9C9E72078400707D5D8F8BB
:100BE0000010E26821F4E0511143C8F800102078A9
:100BF000000708D5D8F80010226921F4604141EAC5
:100C0000C201C8F800100F20FFF76CFE0020AEE70D
:100C1000003C02400038024010B500F043F808499B
:100C20000968F02292FAA2F201F0F001B2FA82F21F
:100C3000D140044A515CC8400349086010BD00001F
:100C400008380240063600081000002010B5FFF7F3
:100C5000E3FF074909684FF4E05292FAA2F201F467
:100C6000E051B2FA82F2D140024A515CC84010BD54
:100C7000083802400636000810B5FFF7CDFF0749D7
:100C800009684FF4604292FAA2F201F46041B2FAAC
:100C900082F2D140024A515CC84010BD083802407F
:100CA0000636000830B51948006810F00C011848E5
:100CB00012D0184C04290ED008290DD1134A121F46
:100CC0001168136801F03F015D0247F6C07304D557
:100CD000B4FBF1F003E0204630BDB0FBF1F0116849
:100CE000194093FAA3F3B3FA83F3D9404843116848
:100CF0004FF4403292FAA2F201F44031B2FA82F299
:100D0000D140491C4900B0FBF1F030BD0838024029
:100D10000024F40040787D012DE9F84F0446007866
:100D2000DFF8FCA2BF4DC0074FF0000648D0DAF84C
:100D300000105046C1F38101012908D00068C0F3BA
:100D4000810002280AD1281D0068400206D52868C3
:100D5000800335D56068002873D031E0DFF8C49295
:100D600009F1020989F80060FFF794FD074641F296
:100D7000883804E0FFF78EFDC11B41457AD828680A
:100D80008003F7D4207989F80000606860B1FFF72C
:100D900081FD074604E0FFF77DFDC11B4145EDD80D
:100DA00028688003F7D50BE0FFF774FD074604E0E1
:100DB000FFF770FDC11B4145E0D828688003F7D4D8
:100DC0002078DFF86492800744D5DAF800105046A6
:100DD00011F00C0F4FF0F80809D00068C0F3810043
:100DE00002280BD18E48001F0068400206D42868F4
:100DF000800714D5E068012823D110E0E068D0B165
:100E00000120C9F80000FFF745FD074604E0FFF7A1
:100E100041FDC01B6428B1D828688007F7D5286831
:100E200098FAA8F22169B2FA82F220F0F800914013
:100E3000084328600EE0C9F80060FFF72BFD074665
:100E400005E0EAE0FFF726FDC01B642812D82868F9
:100E50008007F7D42078000725D5DFF8C4817348D0
:100E6000616908F16C0881B101210160FFF712FD91
:100E7000074605E07EE0FFF70DFDC01B642879D82A
:100E8000D8F800008007F6D50DE00660FFF702FDF8
:100E9000074604E0FFF7FEFCC01B64286AD8D8F8B8
:100EA00000008007F6D42078400753D55C483830DE
:100EB000016841F0805101600068DFF8748100F042
:100EC00080500090D8F8001041F48071C8F80010EC
:100ED000FFF7E0FC074604E0FFF7DCFCC01B6428DA
:100EE00048D8D8F80000C005F6D5DFF834B10BF1CA
:100EF000680B8BF80060FFF7CDFC074641F288389D
:100F000004E0FFF7C7FCC11B41457ED8DBF80000B9
:100F10008007F6D4207A8BF80000A06868B1FFF74C
:100F2000B9FC074604E0FFF7B5FCC11B41456CD88E
:100F3000DBF800008007F6D50CE0FFF7ABFC0746B6
:100F400004E0FFF7A7FCC11B41455ED8DBF80000B9
:100F50008007F6D4A069E8B3DAF80010C1F3810184
:100F600002295AD0022806D0C9F86060FFF792FC27
:100F700004464DE049E04F46C9F86060FFF78AFC3F
:100F8000064604E0FFF786FC801B64283DD82868ED
:100F90008001F7D4D4E90701084347F6C07191FAFC
:100FA000A1F1626AB1FA81F18A40A16A4FF0FF3380
:100FB00003EB51014FF4403393FAA3F3B3FA83F3F5
:100FC00099400A4310434FF0706292FAA2F2B2FACB
:100FD00082F200E01FE0E16A914008431049091FD6
:100FE000086001203866FFF755FC044604E0FFF76F
:100FF00051FC001B642808D828688001F7D50AE056
:10100000FFF748FC001B642802D90320BDE8F88FD5
:1010100028688001F4D40020F8E70120F6E70000FA
:10102000083802400038024000004742800E474224
:10103000007000404FF0E0210428086903D020F040
:1010400004000861704740F00400FAE710B5401E44
:10105000B0F1807F01D3012010BD4FF0E02460612A
:101060000F21601700F030FC0020A06107202061F4
:10107000002010BD70B5044690F838000D460128D8
:101080000DD0012684F83860022084F8390042B17E
:10109000042A18D0082A2AD00C2A4DD139E002207F
:1010A00070BD206801F0FAFD2068816941F00801F7
:1010B00081612068816921F0040181612068816972
:1010C0002A69114311E0206801F014FE206881694B
:1010D00041F4006181612068816921F4806181614E
:1010E000206881692A6941EA0221816124E020683F
:1010F00001F032FE2068C16941F00801C161206839
:10110000C16921F00401C1612068C1692A691143E4
:1011100011E0206801F050FE2068C16941F40061CF
:10112000C1612068C16921F48061C1612068C16921
:101130002A6941EA0221C16184F83960002084F8FB
:10114000380070BD10B5040003D094F8390010B118
:1011500007E0012010BD002084F83800204600F090
:101160000DF8022084F83900211D206801F02AFDC5
:10117000012084F83900002010BD0000114800B59E
:10118000016887B041F002010160006800F00200D0
:1011900005900C481038016841F0020101600068B8
:1011A000012100F00200059002200090CDE901012C
:1011B0000321CDE9031069460348FFF773FA07B02E
:1011C00000BD0000403802400004024010B5044653
:1011D0000068012201F056FD08482168814202D0D2
:1011E0000748814203D1486C40F4004048642068BD
:1011F000016841F001010160002010BD00000140C4
:1012000000040140704738B5016804460868CA68A0
:10121000C0F3000002F4807238B132B10868486847
:101220000090E06B40F00100E06308684A69C0F399
:10123000400002F0010238B132B1086848680090FD
:10124000E06B40F00400E06308684A69C0F3800086
:1012500002F0010238B132B1086848680090E06BD2
:1012600040F00200E06308684A69C0F3C00002F081
:10127000010238B132B1086848680090E06B40F074
:101280000800E0630868C968C0F3401001F020015D
:1012900018B111B1204601F0BDFD20680168C06899
:1012A000C1F3C01100F0800019B110B1204601F067
:1012B000BFFE21680868CA68C0F3801002F04002CF
:1012C000012568B162B1CA68204622F04002CA60B6
:1012D00094F8391032290CD080F8395000F0ECF82D
:1012E000E06B002804D084F839502046FFF78AFFCD
:1012F00038BD222180F83910F0E770B5040004D021
:1013000094F83900002510B106E0012070BD84F882
:101310003850204600F020F8022084F83900206878
:10132000C16821F40051C160204601F0C7FD20686A
:10133000016921F4904101612068416921F02A018D
:1013400041612068C16841F40051C160E56301203A
:1013500084F83900002070BD30B50446006820498B
:1013600087B0884239D11F48016841F0020101600D
:10137000006800F0020005901A481030016841F43E
:10138000802101600068012100F4802005904FF465
:10139000806000900220CDE9010103900720124DEA
:1013A000049069462846FFF77DF9E81400906946E5
:1013B0002846FFF777F92068C16821F04001C16035
:1013C0002068C16841F02001C1602720FFF79FFA23
:1013D000032211462720FFF7A5FA07B030BD000011
:1013E0000048004030380240000402402DE9F04738
:1013F000044690F8390099460D46012801D012287C
:1014000057D125B31AB394F83800012851D00126DA
:1014100084F838600027E76394F83900122819D05F
:10142000222084F83900A285E2854FF48058E08DAF
:101430004B46401EE085A0684FF0000240454FF04B
:101440002001204616D101F026FEB0B904E00120AB
:10145000BDE8F0873220E4E7206900282068406872
:1014600003D0C1B225F8011B12E0C0F3080125F832
:10147000021B0DE001F00FFE08B10320E8E7206930
:1014800000282068406801D000F07F0005F8010BBB
:10149000E08D0028CBD194F83900322805D084F8AB
:1014A000396084F838700020D2E7122084F83900BF
:1014B000F7E70220CCE770477047FEE770B50D4CA8
:1014C0000025C4F890520C48016821F44061016085
:1014D000016841F480610160C4F89452022004F56F
:1014E000247401F0B5FE01202060022001F0B0FE5E
:1014F000256070BD00804342001C02400E4810B5BC
:10150000016886B041F0800101600068012400F0AC
:10151000800005903020CDE900040220CDE9024092
:1015200069460648FFF7BEF80548C0F89442C0F87F
:10153000904206B010BD000030380240001C02404E
:101540000080434270B50D4C0026C4F890620C48F0
:10155000016821F440610160016841F4806101602B
:101560000125C4F89452022004F5247401F070FEA1
:101570002560022001F06CFE266070BD00804342B1
:10158000001C02402DE9F0478146164800240168FE
:1015900021F44061016001680160134E2546274631
:1015A0004FF00108C6F89072022001F051FEC6F813
:1015B00090826006040ED6F8140208B1641CE4B2EE
:1015C000012001F045FE6D1CEDB2082DEAD3B9F102
:1015D000000F04D0FFF772FF2046BDE8F087FFF749
:1015E000B1FFF9E7001C0240008043422DE9F041C1
:1015F00005461448016821F440610160016841F426
:1016000080610160104E0027C6F890723C464FF092
:101610000108E809C6F894026806050E022001F0E8
:1016200017FEC6F89082022001F012FEC6F89072F2
:10163000022001F00DFE641CE4B2082CE9D3BDE8E1
:10164000F0810000001C02400080434270B50D484C
:10165000016821F440610160016841F4806101602A
:10166000094C0120C4F89402C4F89002042004F547
:10167000247401F0EDFD00256560042001F0E8FD13
:10168000256070BD001C02400080434270B50D48CB
:10169000016821F440610160016841F480610160EA
:1016A000094C0020C4F89002C4F89402042004F508
:1016B000247401F0CDFD01252560042001F0C8FD52
:1016C000656070BD001C02400080434270B5124846
:1016D0000024016821F440610160016801600F4D40
:1016E0000126C5F89462304601F0B2FDC5F890625B
:1016F000012001F0ADFD07E0641CE4B2FA2C03D92F
:10170000FFF7C4FF012070BDD5F814020028F3D103
:10171000C5F8900270BD0000001C024000804342EA
:1017200070B51B4886B00025016841F001010160D9
:10173000016801F001010591016841F004010160B7
:10174000016801F004010591016841F08001016028
:101750000068032400F08000059002200126CDE9F6
:101760000204CDE9006569460A48FEF79BFF700355
:1017700003948DE8610069460748FEF793FF0C204B
:10178000009069460548FEF78DFF06B070BD000069
:10179000303802400000024000080240001C0240B5
:1017A0002DE9F0470126304C7703DFF8C080DFF8E1
:1017B000C090304D01281DD02078A0B108212846C6
:1017C000FFF75EF8C0B104212846FFF759F898B139
:1017D00039464046FFF754F870B101214846FFF7FB
:1017E0004FF8012808D008212846FFF749F80128BA
:1017F00026D037E02670E1E70A2001F007FD00203F
:10180000207008212846FFF73BF880B104212846C4
:10181000FFF736F870B139464046FFF731F858B156
:1018200001214846FFF72CF8012807D01AE00120D3
:10183000BDE8F0870220FBE70320F9E70420F7E783
:1018400004212846FFF71CF801280BD139464046F1
:10185000FFF716F8012805D101214846FFF710F8D7
:1018600000B926700020E3E73200002000080240A3
:1018700000000240001C0240104810B5016886B00C
:1018800041F0020101600068012100F002000590B2
:101890000320CDE90210CDE90001094C694620463C
:1018A000FEF700FF012211462046FEF7EEFF01225F
:1018B00002212046FEF7E9FF06B010BD3038024095
:1018C00000040240FEE770470907090E002806DA07
:1018D00000F00F0000F1E02080F8141D704700F1C7
:1018E000E02080F80014704770B586B000F064F80E
:1018F00000F0BEFE224A00242046947102F1340119
:101900000C54401CC0B20828FAD31471547194626C
:10191000146200F0BDFE00F07FFE00F049FE00F012
:10192000F9FE80261748CDE901064FF6FF700090BA
:1019300003253F23144A00211448CDE9034500F054
:101940004DFA05AA12A13F2000F03CFB1448CDE956
:1019500001064FF6FE700B4A00903E23121F002135
:101960001048CDE9034500F039FA05AA0EA13E2042
:1019700000F028FB06B0BDE8704000F02FB8000072
:1019800034000020BC190020B81B0020B528000836
:1019900075432F4F532D49492049646C6500000061
:1019A000BC170020E928000875432F4F532D4949E3
:1019B000205374617400000005488021002204C097
:1019C000491EFCD10348044920F007000860704715
:1019D000FC240020FC260020780000207047000036
:1019E0000449C879012804D18878FF2801D2401C15
:1019F000887070473400002070B5144CE0790128DD
:101A000022D1FEF76DFCA178054621B1491E11F0E7
:101A1000FF00A07013D1E07888B900F0C1FE0C4936
:101A2000607951F82010A1622279904207D0C86BEA
:101A3000401CC863E068401CE060FEF771FC28466B
:101A4000BDE87040FEF750BC70BD000034000020BF
:101A5000BC1B002070B505460D48007808B1002079
:101A600070BDFEF73DFC0B490C680CB162680A6062
:101A7000FEF73AFC4CB1012020700020208106A026
:101A800065606061204600F089FD204670BD000061
:101A900036000020440000203F0000002DE9F04700
:101AA000074600788A461446012801D0012008E044
:101AB0002A48007808B1022003E02948007820B1C4
:101AC0000D2010700020BDE8F087FEF709FC7D684E
:101AD000064600213DB1884630467960FEF704FC99
:101AE00084F8008038E0DFF87C908846D9F8000060
:101AF00010F8342F42F002020270417040F804AC3A
:101B0000384600F027FD3046FEF7EEFB00F024FEDD
:101B1000FEF7E6FB0646D9F8000090F8351031B123
:101B2000022908D0394600F0EFFC0A2004E0456A9B
:101B300084F8008001E00E202070D9F8000080F8C1
:101B4000348080F8358040F81C8FC0F80480C0F8DD
:101B500008803046FEF7C8FB2846B4E73600002070
:101B6000370000205400002070B5044600780E466F
:101B7000012801D0012070BDFEF7B2FB0546A07A16
:101B800058B1002302223146204600F083FC28464B
:101B9000FEF7AAFB00F0E0FD0AE0606820B12846ED
:101BA000FEF7A2FB142070BD28466660FEF79CFB82
:101BB000002070BD10B5094CE07901280CD1FEF76A
:101BC0008FFBA17821B9E178FF2901D2491CE1708E
:101BD000BDE81040FEF788BB10BD000034000020B7
:101BE00010B50D4CE079012814D1FEF779FBA178EE
:101BF00031B9E17821B1491E11F0FF01E17003D044
:101C0000BDE81040FEF770BBFEF76EFBBDE810406C
:101C100000F0A2BD10BD00003400002070B50546E4
:101C20000D48007808B1002070BDFEF759FB0B4944
:101C30000C680CB162680A60FEF756FB4CB10320D9
:101C4000207025810020606005A06061204600F0C2
:101C5000A5FC204670BD0000360000204400002096
:101C60003F0000002DE9F0470546007889461446FC
:101C7000032801D0012008E02648007808B102209E
:101C800003E02548007818B10D201070BDE8F087FA
:101C9000FEF726FB06462889002730B1401E288122
:101CA0003046FEF721FB2770F0E7DFF87080D8F8A8
:101CB000000010F8341F41F001010170477040F836
:101CC000049C284600F046FC3046FEF70DFB00F071
:101CD00043FDFEF705FB0646D8F8000090F83510E6
:101CE00031B1022906D0294600F00EFC0A2002E09C
:101CF000277001E00E202070D8F8000080F83470C2
:101D000080F8357040F81C7F47603046BDE8F047EA
:101D1000FEF7EABA36000020370000205400002009
:101D200070B504460078032801D0012070BDFEF78D
:101D3000D7FA0546A07A58B1002301221946204659
:101D400000F0A8FB2846FEF7CFFA00F005FD09E0F9
:101D500020894FF6FF71884206D2401C2081284618
:101D6000FEF7C2FA002070BD2846FEF7BDFA332008
:101D700070BD000010B5094CE07900280CD100F0CE
:101D80000FFD60790649207151F82000A0622062A1
:101D9000BDE81040FEF7ABBA10BD000034000020D3
:101DA000BC1B002010B5022000F0ECFAFEF798FAF8
:101DB000084C0021E161FEF797FA642000F0E2FA96
:101DC000FEF78EFAE169616101216170BDE81040A2
:101DD000FEF78ABA34000020FEF791BB2DE9FF4FD1
:101DE00083B01C46DDE91386DDE9119792468B46E8
:101DF000FEF776FA1D49097829B1FEF775FA3C20FD
:101E000007B0BDE8F08F1A4D55F8241019B1FEF750
:101E10006BFA2820F4E7012145F82410FEF764FA54
:101E200032463946484600F0AFFD334652465946E1
:101E3000039800F06FF90097CDE9018601464A4604
:101E40002046109B00F0BCFC060008D0FEF748FAC4
:101E5000002145F82410FEF747FA3046D0E7054840
:101E600000780128F9D100F077FCF6E73600002071
:101E7000BC1B00203B000020FEF742BB2DE9F047D1
:101E800005464348007810B14020BDE8F0873F2D5B
:101E900005D0FEF725FA0646FF2D02D005E03E20CC
:101EA000F3E73C48006890F83650DFF8EC9059F8BA
:101EB00025405CB1012C0ED094F83810374A94F8C4
:101EC0003930505C984350540AD00FE03046FEF74A
:101ED0000BFA4320D9E73046FEF706FA3D20D4E757
:101EE0002F4894F83A20017891430170E16911B1CB
:101EF000204600F009FB216A11B1204600F016FBD4
:101F0000A06A08B100F078FB4FF00008C4F83080F8
:101F1000244F84F8348084F835803878FF2801D243
:101F2000401C38703046FEF7DFF900F0B1FAFEF7DA
:101F3000D7F90646387808B1401E3870204600F0C0
:101F40003DF819480178491E017049F82580A069BB
:101F5000414690B161694161D4E90501816113484D
:101F600001686161046012A020653046FEF7BCF98B
:101F700010480078012806D007E0606981610E49A9
:101F800060690860EBE700F0E7FB00207DE70000F8
:101F90003600002054000020BC1B002068000020F8
:101FA0003A000020370000203C00002058000020AC
:101FB0003F0000003B00002060000020FEF7A1BAB7
:101FC000FEF7A0BA70B5054610480E4614460078D4
:101FD00010B11220107070BDFEF782F9FF2D03D1F1
:101FE0000B49096891F836500A4951F825204325D4
:101FF0003AB1012A05D01665FEF776F90020207067
:1020000070BDFEF771F9257070BD0000360000202C
:1020100054000020BC1B002010B50446FEF760F9F8
:102020001C4951F8241069B101290FD091F83420CE
:1020300013072BD502F0F70281F8342012F0370F86
:1020400008D009E0FEF750F9462010BDFEF74CF924
:10205000432010BD0A6B1AB1FEF746F9002010BDEF
:102060000D4B91F83A201C7822431A7011F8382F42
:102070000A4B49789C5C0C439C54FEF735F90848A0
:1020800000780128EAD100F067FBE7E7FEF72CF9BA
:10209000442010BDBC1B00203A0000206800002036
:1020A0003B000020FEF72FBAFEF72EBA2DE9F041D3
:1020B0000446002008600E464860FEF711F9FF2C28
:1020C00003D11249096891F83640114951F824109A
:1020D00051B1012908D00A7CD2070AD0D1E90257B0
:1020E0000024FEF701F909E0FEF7FEF84320BDE801
:1020F000F081FEF7F9F84520F9E7641C01CD0028CE
:10210000FBD0381BC6E900400020F0E75400002057
:10211000BC1B002010B5121D22F007024FF0807486
:1021200042E902044C4842F80C0C4FF0123042F8DD
:10213000100D4FF0033042F8040D4FF00234A2F1BD
:102140000C00621016C04FF0113140F8101C110144
:1021500040F8141C4FF0093140F8181CD10040F829
:102160001C1C4FF0073140F8201C4FF0063140F89E
:10217000241C4FF0053140F8281D910040F8041D43
:10218000590767D55106021F1160A0F10801334AB3
:102190000A60091F324A0A60091F324A0A60091F91
:1021A000314A0A60091F314A0A60091F304A0A6031
:1021B000091F304A0A60091F2F4A0A60091F2F4A67
:1021C0000A60091F2E4A0A60091F2E4A0A60091F69
:1021D0002D4A0A60091F2D4A0A60091F2C4A0A600D
:1021E000091F2C4A0A60091F4FF083420A60091F29
:1021F000294A0A60091F294A0A60091F284A0A60F9
:10220000091F284A0A60091F274A0A60091F274A2E
:102210000A60091F264A0A60091F4FF082420A60BD
:10222000091F244A0A60091F234A0A60091F234A1A
:102230000A60091F4FF081420A60091F62050A60A7
:10224000091F12020A60091F4FF07E520A60002126
:1022500040F8841D10BD0000D12800080000F8419E
:102260000000F0410000E8410000E0410000D841DA
:102270000000D0410000C8410000C0410000B8414A
:102280000000B0410000A8410000A04100009841BA
:102290000000904100008841000070410000604152
:1022A000000050410000404100003041000020414A
:1022B000000010410000E0400000C0400000A040CD
:1022C00070B50446FEF70CF801461D48FF2C006867
:1022D00005D090F83600A04204D1012503E090F823
:1022E0003640FAE70025174850F8240058B1012875
:1022F0000ED090F83820144C90F83960A35CB343AA
:10230000A3540AD00FE00846FDF7EEFF482070BD49
:102310000846FDF7E9FF432070BD0C4A90F83A40AB
:102320001378A343137010F8342F42F008020270A0
:102330000846FDF7D9FF0DB100F00EFA002070BD80
:1023400054000020BC1B0020680000203A00002040
:102350000A4810B50068017C490702D50068FDF7FE
:10236000A9FF07480068017C490702D50068FDF70E
:10237000AEFFBDE81040FEF7C8B8000054000020D2
:102380005C00002070B5044613480078002821D175
:102390001248007800281DD1002C1BD0FDF7A0FFAB
:1023A00003460F480F4D016891F8382091F83960C5
:1023B000A85CB043A85405D10B4891F83A50027874
:1023C000AA43027018460C63FDF78EFFBDE870400B
:1023D00000F0C2B970BD00003600002037000020B8
:1023E00054000020680000203A0000202DE9F04150
:1023F00000F04CF8FDF774FF234D296B491C29634D
:10240000FDF772FFE87901283BD1687A01260027A1
:1024100020B1012835D0022802D06F72EC6A2CE07E
:102420006E72FBE7FDF75CFF216B19B3491E216358
:1024300020D194F8341011F0370F06D001F0C80104
:1024400084F8341084F8356001E084F8357094F82D
:10245000341009070ED494F83A10AA790A4B1143A4
:10246000A97194F83810343394F839C05A5C42EAB0
:102470000C025A546469FDF737FF94F836003F2880
:10248000D0D1BDE8F081000034000020FEF73EB856
:1024900070470000F0B50F460546807A1749085C82
:1024A0002C18E47A095D01EBC001CEB2144951F851
:1024B000264000216762216394F83410914384F828
:1024C000341084F8353009070BD40E4994F83A20BB
:1024D0008B791A438A71343194F839300A5C1A4383
:1024E0000A542946204600F00FF8216A19B1204607
:1024F00000F01CF8E5613046F0BD0000163600081B
:10250000BC1B00203400002010B590F8382090F853
:1025100039408B18DA7AA243DA7204D18A7A90F8B9
:102520003A309A438A720021C16110BD70B510F82B
:10253000385F84784678086809E04319DA7AB2434C
:10254000DA7202D1827AA243827251F8040F002813
:10255000F3D170BD30B5104C00F10B02216A41F887
:102560001C0F0B7F497F9D5C0D439D54216A827A2D
:1025700091F83A301A43827291F8380004F134032A
:1025800091F839501A5CAA431A5404D191F83A10C0
:10259000A0798843A07130BD3400002000228272EF
:1025A00011464318491CC9B2DA720829F9D3704799
:1025B00010B550210D4800F0A3F800200B4B044645
:1025C000411C03EB00108AB203EB0212047042605C
:1025D00007A2C26088B20428F2D303EB001004A162
:1025E00004704460C1600348036010BD4C240020A7
:1025F0003F00000070000020D0E9001200232AB143
:10260000116001B14A60806883627047C268002926
:102610005160F8D04B60F6E710B54FF4F0711148F7
:1026200000F06EF800200F4B0446411C0A4600EBF8
:10263000400089B203EBC00001EB410103EBC10193
:102640000470416008A1416190B21328EDD300EB02
:10265000400003EBC00004A10470446041610348E2
:10266000036110BDDC1500203F0000003400002095
:102670000648002101638170C1700172C171C1609F
:10268000C1618161416141708172704734000020F5
:1026900010B54FF4F261164800F032F84FF4807133
:1026A000144800F02DF8124B0020411C00EB4004B0
:1026B0000A4604EBC000C9B201EB410403EBC000C1
:1026C00004EBC10103EBC10141610B490165D0B2CB
:1026D0001528EAD300EB400101EBC00003EBC0007A
:1026E000054A00210265416104484362C16210BD90
:1026F000BC1C0020BC1B0020682600083400002001
:10270000002203E0491E00F8012B89B20029F9D10B
:102710007047000010B560210D48FFF7F1FF0C4B2A
:102720000020411C0A4689B200EB400001EB410148
:1027300003EBC10143F8301090B20328F1D300EB52
:102740004000002143F830100248036010BD000033
:102750009C2400207400002070B5FDF7C1FD0E4CD4
:102760000546A07898B9E07888B900F019F80B48C8
:10277000627950F82210A1622079824207D0C86B9A
:10278000401CC863E068401CE060FDF7C4FD2846BB
:10279000BDE87040FDF7A8BD34000020BC1B002040
:1027A0000649054A01F134038879105C1B5CD25C50
:1027B00002EBC00048717047163600083400002054
:1027C0002DE9F05F9846DDE90ABA91460E460546C6
:1027D000FDF786FD344F7C6A002C61D061691C34A2
:1027E0007962FDF781FD44F81C6CA57600262676FB
:1027F0006676666144F810BC44E906A90C9824F892
:102800000C0C24F80A8CE808E6772077012305F001
:10281000070103FA00F2E176A27703FA01F2627788
:1028200026606660E660A6602662A66266621FA0F9
:10283000E662C4E90C6000201C3C04EB8001401CF3
:102840004E6510F0FF00F8D02046FFF7C5FAFDF7FF
:1028500047FD174941F82540FDF746FD2046FFF7A3
:102860000BFBFDF73DFD0146F86AC4E9050600B122
:102870008461FC6294F83A00BA791043B8710A4A4C
:1028800014F8380F34326478135C23431354387AC5
:10289000401C38720846FDF727FD0020BDE8F09F78
:1028A000FDF722FD4220F9E7340000203F00000040
:1028B000BC1B0020054CFDF713FDE169491CE161DB
:1028C000FDF712FDFFF77CFBF5E700003400002068
:1028D000044810B50068FFF7E5FBBDE81040FF2095
:1028E000FFF7CCBA54000020184C02E0C820FFF7D4
:1028F00049FD60780028F9D0642160690025B0FBAB
:10290000F1F0606118B92570FF20FFF7D9FCFDF7E1
:10291000E7FC616964225143E161FDF7E5FCFDF7E5
:10292000DFFCE169C4E90615FDF7DEFCD4E905101A
:10293000B0FBF1F0C0F164002070FFF7B5FB00F0D0
:1029400007F86420FFF71EFDE9E7000034000020CF
:102950007CB50C4D002469462046FFF7A7FB58B90B
:1029600055F8241041B1012906D0D1E9020200EB4B
:10297000820088640198C864641CE4B23F2CEAD9E0
:102980007CBD0000BC1B0020D30707D0920705D5F3
:102990000022002902D004C0491EFAE77047000057
:1029A000144810B5026886B0002142F002020260AD
:1029B000006800F0020005904FF48050CDE900015E
:1029C000012002900320039069460B48FDF76AFE40
:1029D000FEF794FDFEF73AFE4020FEF707FEFEF7F5
:1029E00075FE0446FEF752FEFF2000F033F806B0F5
:1029F000204610BD303802400004024010B50446A5
:102A000000F008F80121A140014201D0012010BDD1
:102A1000002010BD10B5FEF719FE4120FEF7E6FDBF
:102A2000FEF754FE0020FEF7ADFD0446FEF72EFE35
:102A3000204610BD70B50C460546FFF7EBFF01229E
:102A4000AA402CB10243D0B2BDE8704000F002B8F9
:102A50009043F9E710B50446FEF7F8FD4020FEF775
:102A6000C5FDFEF733FE2046FEF7C0FDFEF72EFE45
:102A7000FEF70CFEBDE810400A2000F0C7BB70470F
:102A800070B51E4C92B00025266846F08056266030
:102A9000246804F080541194194C266846F440468A
:102AA000266024680DF1240C04F4404411940124A0
:102AB00000940194022406948CE80D006605CDE98B
:102AC00007616846FEF728F900B1FEE7FDF75CFFF5
:102AD00000B1FEE70CA90F2081E831004FF4A050AF
:102AE0000F904FF48050109005210CA8FDF790FF37
:102AF000002800D0FEE712B070BD00004038024050
:102B00000070004010B5FDF7CBFE064800780128A4
:102B100007D1FEF765FFFFF769FCBDE81040FEF73F
:102B20006BBF10BD3B0000201048016841F47001EC
:102B300001600F48016841F0010101600C4A002169
:102B40000832116002680B4B1A400260031D0A4AEA
:102B50001A60026822F48022026005480C3001608D
:102B600002495806803908607047000088ED00E08F
:102B700000380240FFFFF6FE1030002410B5104A66
:102B800004460E48C2E900010020C2E902041061B7
:102B90001046FEF7D7FA0A4960203C310C22086043
:102BA00060084860022088600548FEF763FABDE8C7
:102BB00010400C210248FEF709BB00000004004051
:102BC00084150020F0B50268234D244E244FDFF811
:102BD00094C0254B4FF0804EA84209D0704507D0D5
:102BE000B04205D0B84203D0604501D0984203D12D
:102BF00022F070044A682243A8421BD0704519D0C5
:102C0000B04217D0B84215D0604513D0984211D0C9
:102C1000164CA0420ED0164CA0420BD0154CA04230
:102C200008D0154CA04205D0144CA04202D0144C40
:102C3000A04203D122F44074CA68224302608A6829
:102C4000C2620A688262A84201D0984201D1096931
:102C5000016301214161F0BD00000140000400401A
:102C600000080040000C004000040140004001400A
:102C7000004401400048014000180040001C004092
:102C80000020004010B50123046A8B409C4304627D
:102C9000036A8A401343036210BD000030B5026A24
:102CA00022F001020262056A426883690C6823F01F
:102CB00073031C438B6825F002052B430B4DA84280
:102CC00002D00B4DA8420BD123F00805CB6822F4AB
:102CD00040722B434D6923F0040315438A692A434C
:102CE0004260846149684163036230BD0000014075
:102CF0000004014030B5026A22F010020262036A49
:102D0000426884690D6824F4E64444EA05248D6829
:102D100023F0200343EA05130D4DA84202D00D4DC8
:102D2000A8420ED1CD6823F0800343EA05134D6914
:102D300022F4406242EA85028D6923F0400342EAB0
:102D400085024260846149688163036230BD00008E
:102D5000000001400004014030B5026A22F4807294
:102D60000262036A4268C46923F4007324F07305A5
:102D70000C682C438D6843EA05230D4DA84202D010
:102D80000C4DA8420ED1CD6823F4006343EA05231D
:102D90004D6922F4405242EA05128D6923F48063A2
:102DA00042EA05124260C4614968C163036230BDF2
:102DB000000001400004014030B5026A22F4805254
:102DC0000262036A4268C4690D6824F4E64444EA76
:102DD00005248D6823F4005343EA0533084DA842C7
:102DE00002D0084DA84204D14D6922F4804242EA43
:102DF00085124260C46149680164036230BD00000D
:102E000000000140000401400149086070470000D3
:102E10004004004010B590F83910222903D032291F
:102E200001D0022010BD8168B1F5805F11D0016929
:102E3000002901681FD0496801F07F03816A4A1C9C
:102E400082620B70C18D491E0904090CC18518D01E
:102E50002FE00269816A002A0268526805D0D2B266
:102E60000A80816A491C8162ECE7C2F308020A8089
:102E7000816A891CF7E74A68816A4B1C83620A7081
:102E8000E0E70168CA6822F02002CA6090F83910B1
:102E9000322910D00168CA6822F48072CA600168C1
:102EA0004A6922F001024A61012180F83910FEF7D7
:102EB00002FB002010BD1221F7E700002DE9F041D0
:102EC000044600680169E26821F440510A43026146
:102ED0002068C16849F20C6291432369A268E569E0
:102EE0001A4363692B431A430A43C260206841694D
:102EF00021F44072A16911434161E06964263225E1
:102F0000B0F5004F484A494920681DD0884201D099
:102F1000904269D1FDF7B0FE00EBC00101EB00105B
:102F20006168B0468900B0FBF1F1B1FBF8F6FDF73E
:102F3000A3FE00EBC00101EB001061688900B0FB4B
:102F4000F1F7FDF799FE68E0884201D0904219D16F
:102F5000FDF792FE00EBC00101EB00106168B04686
:102F60004900B0FBF1F1B1FBF8F6FDF785FE00EB8F
:102F7000C00101EB001061684900B0FBF1F7FDF7FB
:102F80007BFE18E0FDF762FE00EBC00101EB0010D4
:102F90006168B0464900B0FBF1F1B1FBF8F6FDF70E
:102FA00055FE00EBC00101EB001061684900B0FB69
:102FB000F1F7FDF74BFE00EBC00101EB001061687B
:102FC0004900B0FBF1F1B1FBF8F06FF01801484394
:102FD00007EB800005EB0011B1FBF8F0216866F308
:102FE0001F108860BDE8F081FDF730FE00EBC001E6
:102FF00001EB00106168B0468900B0FBF1F1B1FB54
:10300000F8F6FDF723FE00EBC00101EB001061684C
:103010008900B0FBF1F7FDF719FE00EBC00101EBF1
:10302000001061688900CCE70014014000100140E5
:1030300090F83910122903D0322901D002207047AC
:103040008168B1F5805F016A0BD04A1C0262026898
:1030500009785160C18C491E0904090CC1840ED045
:1030600017E009880268C1F308015160016900296D
:10307000016A02D0491C0162ECE7891CFBE7016888
:10308000CA6822F08002CA600068C16841F040014D
:10309000C160002070472DE9F0471D4690460F465D
:1030A0000446FDF7F7FB06465FEA08004FF000090B
:1030B0004FF0010808D030E0681C05D095B1FDF74D
:1030C000E9FB801BA8420DD82068006837EA0000A1
:1030D000F2D127E0681C20D025B1FDF7DBFB801B77
:1030E000A8421AD92068C16821F08001C160206817
:1030F000C16821F02001C1602068C16821F480719D
:10310000C1602068416921F00101416184F8398082
:1031100084F838900320BDE8F0872068006837EA1B
:103120000000D7D00020F6E738B5FEF759FC194863
:1031300000680068C043800622D44FF47A730122ED
:1031400069461448FEF752F9134A1088010417D44F
:1031500041049DF800104FF0000304D50A290ED158
:1031600040F4004014E00D2910D0C0F30D04094DC7
:10317000401CC83D80B229551080C72800D9138053
:103180000448FEF740F8FEF737FC38BD40F48040B5
:103190001080F5E74415002030000020FEE770475E
:1031A00008B50B4C4FF46B756A460021A068FEF71A
:1031B00059FD00210846FFF73DFC3C2000F026F8B1
:1031C00001210020FFF736FC284600F01FF8EBE74E
:1031D0000000002010B504460420FDF72BFF0A482C
:1031E0004FF47A7114FB01F10122446002804FF028
:1031F000E020026942F0020202614161016941F08E
:103200000101016110BD00002800002070B50446D6
:103210000C48007878B10C48007860B90B4D2888CC
:10322000844203D3B4FBF0F0FFF7ACF82888B4FB7A
:10323000F0F100FB11444FF47A706043BDE8704038
:1032400000F006B83B0000203600002028000020D7
:103250002DE9F0414FF0E02700247E690C494968D0
:1032600000FB01F5FEF7A6FCB969B8698842FCD0FD
:1032700002D2A1EB000102E0A6EB000211440C44D3
:103280000146AC42F1D3BDE8F041FEF7A9BC000015
:1032900028000020F02101700121417070470000DA
:1032A000064C0020FEF77CFA010002D06068FEF7B1
:1032B0005BFC0A20FFF7AAFFF3E7000000000020F4
:1032C00008B500240A4D0B4E27464FF001086A4608
:1032D0000021E868FEF7C6FC34B1C6F880820024FD
:1032E0000A20FFF793FFF2E7C6F880720124F7E7A0
:1032F000000000200080404210B586B0FDF7D8FAEB
:103300000823022219214FF4B470FFF7B9FBB4204F
:10331000FFF760FF4FF4E13000F024F9FEF7ACFA5C
:10332000FEF7FEF9FFF73CFBFEF7DEFA1948FFF760
:10333000B1FF592140F2F310FFF720FC0020FFF706
:1033400063FD0020FFF75AFB02E0C820FFF75EFF95
:10335000FDF70EF90028F8D14FF4FA74FDF74DF897
:1033600018B12046FFF752FFF8E70B4801AC0723DE
:103370000022802184E80F000A2003460090074ABB
:1033800000210748FEF72AFDFEF7F4FC06B00020F6
:1033900010BD0000000000207C000020780200200A
:1033A0004934000808B50A4C6A460A216068FEF7ED
:1033B00075FB012802D0022805D101E0E06800E099
:1033C000A068FEF7ADFC0A20FFF720FFECE7000045
:1033D000000000200EB51A4C0F20FF2120700020A5
:1033E0006070184D8DF800108DF809006E462F1D85
:1033F000804618E06846FDF717F80020FFF7FEFA50
:103400006846FDF70AF9002029684906FCD5315CB9
:103410003960401C80B20A28F6D328684006FCD5E3
:1034200006E00F2804D184F801800320FEF748FF4E
:103430006420FFF7EBFE2078F028F2D1DAE70000F5
:103440000000002000480040F0B585B00020FEF7E5
:1034500001FB374C60600020FEF7E0FBA06000201D
:10346000FEF7DCFBE060FEF79DFCFCF739FF07464A
:1034700080263048CDE9010606200025009007246B
:10348000CDE9035403462C4A29462C48FEF7A6FCF6
:103490002B49B000CDE9011003200090CDE9035481
:1034A000034601F2FC7200212648FEF797FC2248F1
:1034B000254A001DCDE9010605200090CDE9035401
:1034C000034600212148FEF789FC2148CDE9010689
:1034D00008200090CDE9035403461E4A00211E48EF
:1034E000FEF77CFC1848164A001DCDE901060420B1
:1034F0000090CDE903540346121F00211748FEF740
:103500006DFC14480296CDE90354001DCDE900403E
:1035100000F5FE72072300211148FEF75FFC3846D4
:10352000FCF7E2FE05B00A20BDE8F040FEF7C8BE99
:10353000000000207C06002078080020C13200082E
:103540007C0C0020D5330008780A0020A131000847
:103550007C0200207804002089350008A53300088B
:10356000A13200080749064AC1E90020002088600E
:10357000C860086188610C2048610846FDF7BDBE3F
:103580000048004044150020194F1A4C1A4E3D4681
:103590004FF001084FF000093088000424D520784E
:1035A0000F280BD16078112802D1F868FEF7B8FB1C
:1035B0006078212802D1B868FEF7B2FB2078F028A5
:1035C0000AD160782870F0280CD1687850B90320AF
:1035D000FEF722FD85F801802078F22802D160787C
:1035E000FFF712FCA6F800901420FFF70FFED3E7B8
:1035F000000000207C140020300000204FF04070BC
:10360000E1EE100A7047000000000102030401020D
:10361000030406070809000001000200010003007E
:10362000010002000100040001000200010003008B
:10363000010002000100050001000200010003007A
:10364000010002000100040001000200010003006B
:103650000100020001000600010002000100030059
:10366000010002000100040001000200010003004B
:10367000010002000100050001000200010003003A
:10368000010002000100040001000200010003002B
:103690000100020001000700010002000100030018
:1036A000010002000100040001000200010003000B
:1036B00001000200010005000100020001000300FA
:1036C00001000200010004000100020001000300EB
:1036D00001000200010006000100020001000300D9
:1036E00001000200010004000100020001000300CB
:1036F00001000200010005000100020001000300BA
:1037000001000200010004000100020001000300AA
:10371000010002000100000038370008000000200E
:103720007C000000E8010008B43700087C0000209D
:10373000E42C00000402000800000000000000006B
:1037400000000000000000000024F4000000000061
:103750000000000001020304060708090000000041
:103760000000000000000000000001000000000058
:103770000000000000000000000000000000000049
:103780000000000000000000000000000000000039
:103790000000000000000000000000000000000029
:1037A0000000000000000000000000000000000019
:0437B0000000000015
:04000005080001AD41
:00000001FF
